:100000000C945D000C9485000C9485000C94850084
:100010000C9485000C9485000C9485000C9485004C
:100020000C9485000C9485000C9485000C9485003C
:100030000C9485000C9485000C9485000C9485002C
:100040000C9473020C9485000C94E3020C94BD0292
:100050000C9485000C9485000C9485000C9485000C
:100060000C9485000C94850000000008000201003B
:100070000003040700000000000000000000000072
:10008000250028002B0000000000240027002A0083
:10009000040404040404040402020202020203032E
:1000A0000303030301020408102040800102040836
:1000B0001020010204081020410511241FBECFEFBB
:1000C000D8E0DEBFCDBF14E0A0E0B1E0ECEEFAE096
:1000D00002C005900D92AC3CB107D9F725E0ACEC1D
:1000E000B4E001C01D92A237B207E1F710E0CDE500
:1000F000D0E004C02197FE010E946E05CC35D107E7
:10010000C9F70E9415030C9474050C94000090E04C
:10011000FC01EC55FF4F249180579F4FFC018491C7
:10012000882399F090E0880F991FFC01EA57FF4F50
:10013000A591B491FC01E458FF4F859194918FB73C
:10014000F894EC91E22BEC938FBF089590E0FC01C2
:10015000E859FF4F2491FC01EC55FF4F3491FC010D
:10016000E057FF4FE491EE23C9F0222339F023300A
:1001700001F1A8F4213019F1223029F1F0E0EE0F5D
:10018000FF1FE458FF4FA591B4918FB7F894EC91FD
:10019000611126C030953E233C938FBF08952730D0
:1001A000A9F02830C9F0243049F7809180008F7D74
:1001B00003C0809180008F7780938000DFCF84B56B
:1001C0008F7784BDDBCF84B58F7DFBCF8091B0006E
:1001D0008F778093B000D2CF8091B0008F7DF9CF20
:1001E0003E2BDACF3FB7F8948091D1049091D2049E
:1001F000A091D304B091D40426B5A89B05C02F3F8D
:1002000019F00196A11DB11D3FBFBA2FA92F982F3C
:100210008827BC01CD01620F711D811D911D42E037
:10022000660F771F881F991F4A95D1F708958F92FF
:100230009F92AF92BF92CF92DF92EF92FF924B01CB
:100240005C010E94F2006B017C010E94F2006C19BB
:100250007D098E099F09683E734081059105A8F3C9
:1002600021E0821A9108A108B10888EEC80E83E047
:10027000D81EE11CF11C81149104A104B10429F7DA
:10028000FF90EF90DF90CF90BF90AF909F908F90B6
:100290000895AF92BF92CF92DF92EF92FF920F93A9
:1002A0001F93CF93DF936C017B018B01040F151F0C
:1002B000EB015E01AE18BF08C017D10759F0699174
:1002C000D601ED91FC910190F081E02DC6010995D8
:1002D000892B79F7C501DF91CF911F910F91FF9085
:1002E000EF90DF90CF90BF90AF900895FC01538DB9
:1002F000448D252F30E0842F90E0821B930B541700
:1003000010F0CF96089501970895FC01918D828D8C
:10031000981761F0A28DAE0FBF2FB11D5D968C9125
:10032000928D9F5F9F73928F90E008958FEF9FEF64
:100330000895FC01918D828D981731F0828DE80F20
:10034000F11D858D90E008958FEF9FEF0895FC01DA
:10035000918D228D892F90E0805C9F4F821B9109A7
:100360008F739927089585ED94E00E94A70121E0FD
:10037000892B09F420E0822F089580E090E0892BFA
:1003800029F00E94B30181110C9400000895FC0132
:10039000A48DA80FB92FB11DA35ABF4F2C91848DE6
:1003A00090E001968F739927848FA689B7892C9343
:1003B000A089B1898C91837080648C93938D848D96
:1003C000981306C00288F389E02D80818F7D808399
:1003D0000895EF92FF920F931F93CF93DF93EC0159
:1003E00081E0888F9B8D8C8D98131AC0E889F989DC
:1003F000808185FF15C09FB7F894EE89FF896083DF
:10040000E889F98980818370806480839FBF81E05F
:1004100090E0DF91CF911F910F91FF90EF900895A1
:10042000F62E0B8D10E00F5F1F4F0F731127E02E7C
:100430008C8D8E110CC00FB607FCFACFE889F989B4
:10044000808185FFF5CFCE010E94C701F1CFEB8DF2
:10045000EC0FFD2FF11DE35AFF4FF0829FB7F89488
:100460000B8FEA89FB8980818062CFCFCF93DF93A6
:10047000EC01888D8823B9F0AA89BB89E889F989BC
:100480008C9185FD03C0808186FD0DC00FB607FCF1
:10049000F7CF8C9185FFF2CF808185FFEDCFCE0124
:1004A0000E94C701E9CFDF91CF910895CF93DF93E9
:1004B000FC0101900020E9F73197AF01481B590B6F
:1004C000BC0185ED94E00E944901EC0142E050E05E
:1004D00062E171E085ED94E00E9449018C0F9D1F5F
:1004E000DF91CF9108951F920F920FB60F921124B2
:1004F0002F933F938F939F93AF93BF938091CD049E
:100500009091CE04A091CF04B091D0043091CC044E
:1005100023E0230F2D3758F50196A11DB11D20931F
:10052000CC048093CD049093CE04A093CF04B093D9
:10053000D0048091D1049091D204A091D304B091C1
:10054000D4040196A11DB11D8093D1049093D204CF
:10055000A093D304B093D404BF91AF919F918F9196
:100560003F912F910F900FBE0F901F90189526E886
:10057000230F0296A11DB11DD2CF1F920F920FB66D
:100580000F9211242F933F934F935F936F937F9319
:100590008F939F93AF93BF93EF93FF9385ED94E079
:1005A0000E94C701FF91EF91BF91AF919F918F91F1
:1005B0007F916F915F914F913F912F910F900FBE5F
:1005C0000F901F9018951F920F920FB60F92112443
:1005D0002F938F939F93EF93FF93E091E504F09116
:1005E000E6048081E091EB04F091EC0482FD1BC0F5
:1005F00090818091EE048F5F8F732091EF048217BA
:1006000041F0E091EE04F0E0EB52FB4F958F8093C8
:10061000EE04FF91EF919F918F912F910F900FBE5C
:100620000F901F9018958081F4CF789484B58260E4
:1006300084BD84B5816084BD85B5826085BD85B586
:10064000816085BD80916E00816080936E00109204
:10065000810080918100826080938100809181007F
:100660008160809381008091800081608093800010
:100670008091B10084608093B1008091B00081606E
:100680008093B00080917A00846080937A0080919A
:100690007A00826080937A0080917A0081608093F2
:1006A0007A0080917A00806880937A001092C1006D
:1006B00082E00E94870084E00E94870088E00E9418
:1006C00087008CE00E948700E091E504F091E60449
:1006D00082E08083E091E104F091E2041082E091F5
:1006E000E304F091E4048FEC80831092ED04E09138
:1006F000E904F091EA0486E08083E091E704F09158
:10070000E804808180618083E091E704F091E8044F
:10071000808188608083E091E704F091E804808123
:1007200080688083E091E704F091E80480818F7D08
:10073000808385E191E00E94560285ED94E00E945D
:10074000A701892BD1F300E010E088E491E00E943A
:10075000560285ED94E00E94A701892BD1F3C1E0F8
:10076000D0E061E0C130D10509F031C182E00E94E2
:10077000A60081E991E00E94560268E873E180E0FA
:1007800090E00E94170160E082E00E94A60080EBEA
:1007900091E00E94560285ED94E00E94A701892B0A
:1007A000D1F32196C530D105E1F689EA92E00E94A5
:1007B000560285ED94E00E94A701892BD1F38BEEC0
:1007C00092E00E94560260ED77E080E090E00E94A7
:1007D000170161E082E00E94A60061E084E00E94CF
:1007E000A60061E088E00E94A60061E08CE00E9423
:1007F000A6008AE293E00E94560268EB7BE080E06C
:1008000090E00E94170160E082E00E94A60060E094
:1008100084E00E94A60060E088E00E94A60060E0FC
:100820008CE00E94A60087E393E00E94560285EDCB
:1008300094E00E94A701892BD1F382E693E00E9405
:10084000560285ED94E00E94A701892BD1F385EC37
:1008500093E00E94560260ED77E080E090E00E9415
:10086000170161E082E00E94A6006AEF70E080E07C
:1008700090E00E94170161E084E00E94A6006AEF08
:1008800070E080E090E00E94170161E088E00E9443
:10089000A6006AEF70E080E090E00E94170161E03E
:1008A0008CE00E94A60080E094E00E94560268EB73
:1008B0007BE080E090E00E94170160E082E00E940F
:1008C000A60060E084E00E94A60060E088E00E944C
:1008D000A60060E08CE00E94A60087E393E00E94FF
:1008E000560285ED94E00E94A701892BD1F38FE099
:1008F00094E00E94560285ED94E00E94A701892BA6
:10090000D1F381E794E00E94560260ED77E080E049
:1009100090E00E94170161E082E00E94A60064E678
:1009200070E080E090E00E94170161E084E00E94A6
:10093000A60064E670E080E090E00E94170161E0AC
:1009400088E00E94A60064E670E080E090E00E94EB
:10095000170161E08CE00E94A60080E094E00E9414
:10096000560264E670E080E090E00E94170160E0CB
:1009700082E00E94A60060E084E00E94A60060E0A1
:1009800088E00E94A60060E08CE00E94A60087E359
:1009900093E00E94560285ED94E00E94A701892B06
:1009A000D1F38BEA94E00E94560260E177E280E0A6
:1009B00090E00E9417010115110509F4C6CE0E94AE
:1009C000B301882309F4C1CE0E940000BECEC2301C
:1009D000D105E1F484E00E94A60087ED91E00E9439
:1009E000560268E873E180E090E00E94170160E041
:1009F00084E00E94A60086EF91E00E94560285EDF9
:100A000094E00E94A701892BD1F3CBCEC330D1054E
:100A1000E1F488E00E94A6008DE192E00E94560277
:100A200068E873E180E090E00E94170160E088E0F0
:100A30000E94A6008CE392E00E94560285ED94E0AD
:100A40000E94A701892BD1F3ACCE8CE00E94A600B6
:100A500083E692E00E94560268E873E180E090E04D
:100A60000E94170160E08CE00E94A60082E892E0FC
:100A70000E94560285ED94E00E94A701892BD1F3D4
:100A800090CEE5EDF4E01382128288EE93E0A0E0D0
:100A9000B0E084839583A683B78384E091E091835B
:100AA000808385EC90E09587848784EC90E097873D
:100AB000868780EC90E0918B808B81EC90E0938B2B
:100AC000828B82EC90E0958B848B86EC90E0978B08
:100AD000868B118E128E138E148E0895EE0FFF1FCB
:0C0AE0000590F491E02D0994F894FFCFEC
:100AEC0000000000E901490176013602A7018501E9
:100AFC0099010D0A00496E7374616E7469617469B1
:100B0C006F6E20636F6D706C6574652D2D707265E2
:100B1C00737320616E79206B657920746F20636F1D
:100B2C006E74696E75652E004D6F746F722054650E
:100B3C0073742031202D2D207465737420656163CE
:100B4C0068206D6F746F7220696E64697669647564
:100B5C00616C6C792E20507265737320616E7920F4
:100B6C006B657920746F20636F6E74696E75652E7A
:100B7C00004D6F746F722031206F6E20666F722083
:100B8C0066697665205365636F6E64732E2E2E0036
:100B9C004D6F746F722031206F66662E2050726517
:100BAC00737320616E79206B657920746F20636F8D
:100BBC006E74696E7565004D6F746F722032206FA4
:100BCC006E20666F722066697665205365636F6E62
:100BDC0064732E2E2E004D6F746F722032206F6650
:100BEC00662E20507265737320616E79206B657967
:100BFC0020746F20636F6E74696E7565004D6F7431
:100C0C006F722033206F6E20666F72206669766576
:100C1C00205365636F6E64732E2E2E004D6F746FB0
:100C2C00722033206F66662E2050726573732061BC
:100C3C006E79206B657920746F20636F6E74696EAA
:100C4C007565004D6F746F722034206F6E20666F67
:100C5C00722066697665205365636F6E64732E2E01
:100C6C002E004D6F746F722034206F66662E2050EC
:100C7C007265737320616E79206B657920746F20B7
:100C8C00636F6E74696E7565004D6F746F7220546E
:100C9C0065737420322D2D5465737420616C6C2037
:100CAC006D6F746F7273206174206F6E63652E208C
:100CBC00507265737320616E79206B657920746F47
:100CCC0020636F6E74696E75652E005475726E6953
:100CDC006E67206F6E20616C6C206D6F746F727319
:100CEC00206174206F6E636520666F7220337320F1
:100CFC0077697468206E6F2074696D652064656C0B
:100D0C00617920696E20322073004D6F746F72739D
:100D1C00206F6E2E2E2E00416C6C206D6F746F72D6
:100D2C0073206F66662E20507265737320616E7926
:100D3C00206B657920746F20636F6E74696E7565B6
:100D4C002E004D6F746F7220546573742033612DB7
:100D5C002D5475726E696E67206F6E20616C6C20FD
:100D6C006D6F746F7273207769746820612064658D
:100D7C006C6179206F6620302E3235207320696EBD
:100D8C00206265747765656E2E20507265737320D2
:100D9C00616E79206B657920746F20636F6E746956
:100DAC006E75652E005475726E696E67206F6E20BD
:100DBC00616C6C206D6F746F727320666F72203370
:100DCC00732077697468206120302E32357320745B
:100DDC00696D652064656C617920696E20327300E1
:100DEC00416C6C206D6F746F7273206F6E2E004DA2
:100DFC006F746F7220546573742033622D2D54758B
:100E0C00726E696E67206F6E20616C6C206D6F74F2
:100E1C006F7273207769746820612064656C6179E6
:100E2C00206F6620302E31207320696E206265742D
:100E3C007765656E2E20507265737320616E792014
:100E4C006B657920746F20636F6E74696E75652E97
:100E5C00005475726E696E67206F6E20616C6C2029
:100E6C006D6F746F727320666F72203373207769A5
:100E7C007468206120302E31732074696D65206494
:100E8C00656C617920696E203273004D6F746F72DE
:100E9C0020746573742077696C6C20726570656161
:0C0EAC007420696E203130732E2E2E0051
:00000001FF
